:020000040800F2
:1000000000040020E102000861370008D135000833
:100010005937000841030008493D0008000000006E
:100020000000000000000000000000007137000820
:1000300099070008000000006937000879370008B8
:10004000FF020008FF020008FF020008FF0200088C
:10005000FF020008FF020008FF020008FF0200087C
:10006000FF020008FF020008FF0200084903000821
:1000700059030008FF020008FF020008FF02000801
:10008000FF020008FF020008FF020008FF0200084C
:10009000FF020008FF020008FF020008FF0200083C
:1000A000FF020008FF020008FF020008FF0200082C
:1000B000FF020008FF020008FF020008FF0200081C
:1000C000FF020008FF020008FF020008FF0200080C
:1000D000FF020008FF020008FF020008FF020008FC
:1000E000FF020008FF02000800000000FF020008F5
:1000F00001390008FF020008FF020008FF020008A3
:10010000FF020008FF020008FF020008FF020008CB
:10011000FF020008FF020008FF020008FF020008BB
:10012000FF020008FF020008FF020008FF020008AB
:10013000FF020008FF020008FF020008FF0200089B
:1001400000000000000000000000000000000000AF
:10015000FF020008FF020008FF020008FF0200087B
:10016000FF020008FF020008FF020008FF0200086B
:10017000FF020008FF020008FF0200080000000064
:10018000FF020008FF020008FF020008FF0200084B
:10019000FF020008FF020008FF020008FF0200083B
:1001A000FF020008FF020008FF0200080000000034
:1001B000FF020008FF020008FF020008FF0200081B
:1001C000FF020008FF02000800000000000000001D
:1001D0000000000000000000FF0200080000000016
:1001E000000000000000000000000000000000000F
:1001F0000000000000000000FF020008FF020008ED
:10020000FF020008FF02000800000000FF020008D3
:10021000FF020008FF020008FF020008FF020008BA
:10022000FF02000800000000FF02000800000000BC
:10023000FF020008FF02000800000000FF020008A3
:10024000FF020008FF020008FF020008FF0200088A
:10025000FF020008FF020008FF020008FF0200087A
:10026000FF020008FF020008FF020008FF0200086A
:10027000FF020008FF020008FF0200080000000063
:10028000FF020008FF020008FF020008FF0200084A
:1002900000000000FF020008FF020008000000004C
:1002A00000000000FF020008FF020008FF02000833
:1002B000FF020008FF020008FF020008FF0200081A
:1002C000FF020008FF020008FF020008DFF80CD060
:1002D00000F01CF800480047513D000800040020D1
:1002E000074880470748804707480047FEE7FEE782
:1002F000FEE7FEE7FEE7FEE7FEE7FEE7FEE7FEE7D6
:10030000B107000851380008CD0200081CB50948A3
:100310000090094801900546009C06E0E06840F026
:10032000010394E8070098471034AC42F6D3FFF776
:10033000D1FF0000CC3D0008FC3D0008000000009B
:10034000FEE700000000000040F20820C2F200407A
:1003500000F0EEBA0000000040F29010C2F200403F
:1003600000F0E6BA0000000040F20F42D0F800C0F2
:10037000C4F20202944511DC6F22C4F202029445D9
:1003800022DC3F22C4F20202944539DC1022C4F27E
:10039000020294455AD0282254E000BF40F26F4236
:1003A000C4F2020294451BDC40F23F42C4F2020256
:1003B00094452DDC40F21042C4F20202944545D02F
:1003C00040F228423EE000BF9F22C4F20202944560
:1003D00028DC7022C4F20202944537D0882231E032
:1003E00040F29F42C4F20202944523DC40F2704284
:1003F000C4F20202944529D040F2884222E000BFB4
:100400004022C4F20202944520D058221AE000BFD4
:1004100040F24042C4F20202944517D040F25842E2
:1004200010E000BFA022C4F2020294450ED0B82210
:1004300008E000BF40F2B842C4F20202944505D081
:1004400040F2A042C4F20202944517D10CF0F80227
:100450004AF6AB23103ACAF6AA23A2FB03310AA339
:100460005F2AC1F302115B5C40F2FF312CEA01010B
:10047000C36588BF04318165084670472CF0FF01D1
:1004800081650846704700BF00061016000610166A
:1004900070B540F26F44D0F800C0C4F20204D0F846
:1004A00058E0A4451ADC9F25C4F20205AC4533DCB4
:1004B0005725C4F20205AC455ADC1025C4F20205EA
:1004C000AC4500F098802825C4F20205AC4500F048
:1004D00092804025C4F202058AE000BF45F22F4514
:1004E000C5F60205AC452DDC40F2B745C4F2020565
:1004F000AC454BDC40F27045C4F20205AC457AD005
:1005000040F28845C4F20205AC4574D040F2A045E3
:10051000C4F202056CE000BF40F22745C4F20205B8
:10052000AC4543DCA025C4F20205AC4563D0B82538
:10053000C4F20205AC455ED040F21045C4F202059B
:1005400056E000BF45F26B45C5F60205AC453FDC01
:1005500045F23045C5F60205AC454CD045F2444560
:10056000C5F60205AC4546D045F258453EE000BF11
:100570005825C4F20205AC453DD07025C4F20205F1
:10058000AC4538D08825C4F2020531E040F2B845C8
:10059000C4F20205AC452ED045F20845C5F6020569
:1005A000AC4528D045F21C4520E000BF40F228456C
:1005B000C4F20205AC451ED040F24045C4F202052B
:1005C000AC4518D040F25845C4F2020510E000BF17
:1005D00045F26C45C5F60205AC450CD045F2944594
:1005E000C5F60205AC4506D045F28045C5F60205C4
:1005F000AC4540F0D080456EC66E002E866E6E60B3
:100600001CBFD0E91C566E60A44515DC9F24C4F2C3
:100610000204A4452CDC5724C4F20204A44551DC96
:100620001024C4F20204A4457AD02824C4F202049F
:10063000A44575D040246FE045F22F44C5F602046E
:10064000A44529DC40F2B744C4F20204A44545DCC9
:1006500040F27044C4F20204A44561D040F28844E0
:10066000C4F20204A4455BD040F2A04454E000BFB1
:1006700040F22744C4F20204A4453FDCA024C4F2A3
:100680000204A4454CD0B824C4F20204A44547D0C7
:1006900040F2104440E000BF45F26B44C5F602044E
:1006A000A44555DC45F23044C5F60204A44561D0AA
:1006B00045F24444C5F60204A4455BD045F25844D3
:1006C00054E000BF5824C4F20204A44528D070248A
:1006D000C4F20204A44523D088241DE040F2B844AB
:1006E000C4F20204A4451BD045F20844C5F6020436
:1006F000A4453FD045F21C4438E000BF40F22844F6
:10070000C4F20204A4450BD040F24044C4F20204F7
:10071000A44505D040F25844C4F20204A4453AD19D
:100720008468C06D00F01F003F2505FA00F0CEF888
:100730000800DCF80000402C20F48020CCF80000F9
:10074000CCF8043023D1CCF80820CCF80C1070BDC4
:1007500045F26C44C5F60204A4450BD045F2804432
:10076000C5F60204A44505D045F29444C5F602043A
:10077000A44510D1C46D012504F01F04806805FA5A
:1007800004F4CEF804404028CCF80430DBD0CCF898
:100790000810CCF80C2070BD70470000000000006D
:1007A000EFF3108072B600BFFEE70000000000000B
:1007B00044F60400C5F60200816841F00201816040
:1007C0000168890409D4016889045CBF01685FEA93
:1007D000814102D401688904F2D57047000000000D
:1007E000F0B540F2100140F21010C2F20041C2F226
:1007F000004001F1100791E80C50F0CF02EB8202AB
:10080000026003EB830242600CEB8C0282600EEB11
:100810008E02C26004EB8402026105EB8502426134
:1008200006EB8602826107EB870201F12007C261B5
:1008300001F1340E8CCFD1E90B659EE8105002EB2C
:100840008202026203EB8302426207EB870201F13C
:100850004007826206EB8602C26205EB85020263F4
:1008600004EB840242630CEB8C0282630EEB8E027B
:10087000C26301F1540E8CCFD1E913659EE810508C
:1008800002EB8202026403EB8302426407EB8702FD
:1008900001F16007826406EB8602C26405EB850203
:1008A000026504EB840242650CEB8C0282650EEB60
:1008B0008E02C2658CCFD1E91B65D1E91D4CC96F91
:1008C00002EB8202026603EB8302426607EB8702B9
:1008D000826606EB8602C26605EB8502026704EBC0
:1008E000840242670CEB8C02826701EB8101C167D5
:1008F000F0BD00000000000010B540F2CC2440F232
:100900009002C2F20044C2F200420021202320469D
:1009100002F0F6FB40F210020421C2F20042202352
:10092000012084F83D002046BDE8104002F0E8BBFD
:100930002DE9F04782B00021019140F20801044600
:10094000C2F2004148F2B512C1F64E32A56D0968F7
:1009500040F26F490068C4F20209A1FB0218484541
:100960002E68296816DC9F21C4F2020188422DDC22
:100970005721C4F20201884252DC1021C4F2020164
:1009800088427CD02821C4F20201884277D04021DD
:1009900070E000BF45F22F42C5F60202904229DC0A
:1009A00040F2B742C4F20202904245DC40F270418C
:1009B000C4F20201884262D040F28841C4F20201CE
:1009C00088425CD040F2A04154E000BF40F2274191
:1009D000C4F2020188423FDCA021C4F20201884235
:1009E0004DD0B821C4F20201884248D040F21041F3
:1009F00040E000BF45F26B42C5F60202904275DC52
:100A000045F23042C5F60202904200F0828045F283
:100A10004442C5F6020290427BD045F2584273E050
:100A20005821C4F20201884229D07021C4F2020187
:100A3000884224D088211DE040F2B842C4F202026C
:100A400090421CD045F20842C5F60202904260D0A6
:100A500045F21C4258E000BF40F22841C4F20201B6
:100A600088420CD040F24041C4F20201884206D0D4
:100A700040F25841C4F20201884240F05183E16DD6
:100A8000082201F01F0140F20F4A8A40C4F2020A14
:100A9000324200F0DE8050454FF0040312DC6F2735
:100AA000C4F20207B8426DDC3F27C4F20207B84225
:100AB00000F39C801027C4F20207B84200F0BD800A
:100AC0002827B5E0484569DC40F23F47C4F20207F9
:100AD000B84200F3938040F21047C4F20207B842D4
:100AE00000F0AB8040F22847A2E000BF45F26C4224
:100AF000C5F6020290420CD045F28042C5F60202D1
:100B0000904206D045F29442C5F60202904240F06F
:100B100007830268E36D03F01F0304279F400F4221
:100B200018BF12F0040623D102279F400F4218BFBE
:100B300012F0020642D1D940090740F1F18212F0C9
:100B4000080100F0ED82016821F00E010160012032
:100B500000FA03F16960606584F83500E16C0029F2
:100B60004FF0000084F8340040F0D582D8E200BF96
:100B700011046F6034D4910636D4016821F0040169
:100B8000016031E09F27C4F20207B84240DC7027C1
:100B9000C4F20207B84250D0882749E040F29F478C
:100BA000C4F20207B8423BDC40F27047C4F20207CD
:100BB000B84242D040F288473AE000BF11046F606B
:100BC00000F1B282910600F1B382016821F00A01BE
:100BD0000160012084F83500002084F83400A7E289
:100BE000D00301D4A16C95E2216C93E24027C4F2BA
:100BF0000207B84221D058271AE000BF40F2404710
:100C0000C4F20207B84218D040F2584710E000BFC3
:100C1000A027C4F20207B8420FD0B82708E000BFEF
:100C200040F2A047C4F20207B84206D040F2B847EB
:100C3000C4F20207B84218BF082307681F4208D051
:100C4000036823F004030360AA60626D42F00102AE
:100C5000626501228A4032426FD0504510DC6F231A
:100C6000C4F2020398421DDC3F23C4F202039842FF
:100C700034DC1023C4F20203984256D028234FE0FC
:100C800048451BDC40F23F43C4F2020398422DDC8E
:100C900040F21043C4F20203984246D040F2284387
:100CA0003EE000BF9F23C4F20203984228DC702379
:100CB000C4F20203984238D0882331E040F29F43C7
:100CC000C4F20203984223DC40F27043C4F20203F0
:100CD00098422AD040F2884322E000BF4023C4F269
:100CE0000203984221D058231AE000BF40F240434B
:100CF000C4F20203984218D040F2584310E000BFFB
:100D0000A023C4F2020398420FD0B82308E000BF2A
:100D100040F2A043C4F20203984206D040F2B84326
:100D2000C4F20203984240F0058243691B0604D5D1
:100D3000AA60626D42F00202626504228A40324279
:100D40006FD0504510DC6F23C4F2020398421DDCC3
:100D50003F23C4F20203984234DC1023C4F202039E
:100D6000984256D028234FE048451BDC40F23F43D1
:100D7000C4F2020398422DDC40F21043C4F2020395
:100D8000984246D040F228433EE000BF9F23C4F281
:100D90000203984228DC7023C4F20203984238D040
:100DA000882331E040F29F43C4F20203984223DCDF
:100DB00040F27043C4F2020398422AD040F28843C2
:100DC00022E000BF4023C4F20203984221D05823FE
:100DD0001AE000BF40F24043C4F20203984218D028
:100DE00040F2584310E000BFA023C4F2020398422F
:100DF0000FD0B82308E000BF40F2A043C4F20203C2
:100E0000984206D040F2B843C4F20203984240F040
:100E1000998103689B0704D5AA60626D42F00402C1
:100E20006265102202FA01F1314200F081805045E2
:100E30004FF0080210DC6F23C4F2020398421DDC5D
:100E40003F23C4F20203984234DC1023C4F20203AD
:100E5000984256D028234FE048451BDC40F23F43E0
:100E6000C4F2020398422DDC40F21043C4F20203A4
:100E7000984246D040F228433EE000BF9F23C4F290
:100E80000203984228DC7023C4F20203984238D04F
:100E9000882331E040F29F43C4F20203984223DCEE
:100EA00040F27043C4F2020398422AD040F28843D1
:100EB00022E000BF4023C4F20203984221D058230D
:100EC0001AE000BF40F24043C4F20203984218D037
:100ED00040F2584310E000BFA023C4F2020398423E
:100EE0000FD0B82308E000BF40F2A043C4F20203D1
:100EF000984206D040F2B843C4F20203984218BFA9
:100F000004220368134213D0A960016849030168F1
:100F100008D4C90508D4016821F008010160216CDA
:100F200021B905E008034FD4216C09B12046884758
:100F3000E06D00F01F01202000FA01F2324200F0C3
:100F4000AD8020681023504510DC6F27C4F20207E3
:100F5000B8421DDC3F27C4F20207B84238DC102734
:100F6000C4F20207B8425AD0282753E048451BDC98
:100F700040F23F47C4F20207B84231DC40F210476A
:100F8000C4F20207B8424AD040F2284742E000BF0C
:100F90009F27C4F20207B8422CDC7027C4F2020774
:100FA000B8423CD0882735E040F29F47C4F20207A0
:100FB000B84227DC40F27047C4F20207B8422ED094
:100FC00040F2884726E000BFA16C0029AED1AFE710
:100FD0004027C4F20207B84221D058271AE000BFC8
:100FE00040F24047C4F20207B84218D040F25847D6
:100FF00010E000BFA027C4F20207B8420FD0B82704
:1010000008E000BF40F2A047C4F20207B84206D091
:1010100040F2B847C4F20207B84218BF022307687B
:101020001F423BD0AA6094F83520042A02681DD1E3
:1010300022F016020260426922F080024261226CB4
:101040000AB9A26C1AB1026822F0080202603F20BD
:101050008840A860012084F83500216D00294FF0F8
:10106000000084F8340056D15AE000BF51030168F3
:101070000CD4C9050ED4016821F0100101600120D3
:1010800084F83500002084F8340003E0080301D41C
:10109000616C00E0E16B09B120468847606D002873
:1010A0003ED0606DC00734D0042084F8350020683D
:1010B0004FEA9821026822F001020260019A01328F
:1010C00001928A421AD80268D20717D0019A0132D7
:1010D00001928A4212D80268D2070FD0019A0132D7
:1010E00001928A420AD80268D20707D0019A0132D7
:1010F00001928A4202D80268D207DFD10068C00795
:101100004FF0030008BF012084F83500002084F868
:101110003400E16C21B1204602B0BDE8F047084739
:1011200002B0BDE8F08700BFD00301D4616CF1E7E5
:10113000E16BEFE7026804228A4032427FF401AE9D
:101140006FE600BF02686CE62DE9F04381B004460B
:1011500000F0E2FD002C00F0AF8040F26F48054641
:101160002068C4F20208404516DC9F21C4F2020147
:1011700088422DDC5721C4F20201884254DC102140
:10118000C4F20201884200F07E802821C4F20201EC
:10119000884278D0402171E045F22F41C5F6020126
:1011A000884229DC40F2B741C4F20201884247DCA0
:1011B00040F27041C4F20201884264D040F288419A
:1011C000C4F2020188425ED040F2A04156E000BF66
:1011D00040F22741C4F20201884241DCA021C4F25E
:1011E000020188424FD0B821C4F2020188424AD09D
:1011F00040F2104142E000BF45F26B41C5F60201EA
:10120000884200F3BB8045F23041C5F602018842B6
:1012100000F0C78045F24441C5F60201884200F063
:10122000C08045F25841B7E05821C4F2020188421B
:1012300029D07021C4F20201884224D088211DE007
:1012400040F2B841C4F2020188421CD045F2084184
:10125000C5F60201884200F0A48045F21C419BE0E3
:1012600040F22841C4F2020188420CD040F24041D1
:10127000C4F20201884206D040F25841C4F2020191
:10128000884240F02381022184F83510002184F83F
:101290003410016821F00101016000BF206801687D
:1012A000C9070DD000F038FD401B0628F6D32020DA
:1012B0006065032084F83500012001B0BDE8F083AB
:1012C00048F23F0204F108060168CFF610621140AF
:1012D000D4F818C06CCE11431943E3692943256A39
:1012E0000E43616A3343042943EA050343EA0C03CE
:1012F00003D1D4E90B652E433343666843F480126F
:10130000A6F13F07A6F12905042FA6F1470938BF2A
:101310001346062DA6F14F0E38BF1346B9F1020F42
:1013200026F0030738BF1346BEF1040F38BF13463B
:10133000742F08BF134604290360426922F0070294
:1013400041EA020140F0DE80D4E90A53002B41EA71
:10135000050100F0D780BCF5005F00F0B980BCF15A
:10136000000F40F0C180022D00F0C180012D00F07F
:10137000B580002D00F0BB80C4E000BF45F26C4199
:10138000C5F6020188420CD045F28041C5F6020143
:10139000884206D045F29441C5F60201884240F0E9
:1013A000958004F1080E022184F83510002184F89C
:1013B00034100168A3699EE80450A2F18005E76932
:1013C000B5FA85F566696D09402A4FEA853543EA25
:1013D00007026FF3101142EA060208BF102541EA26
:1013E000DC0142EA0E02236A294341EAD20141EAC2
:1013F000131140F80819C0B2CD2148433C2101EA3D
:101400009020E0652046FEF7AFFFE16D012201F07C
:101410001F0102FA01F141602068404500F381801C
:101420009F21C4F20201884214DC5721C4F2020158
:10143000884227DC1021C4F20201884200F0C780F4
:101440002821C4F20201884200F0C1804021C4F288
:101450000201B9E040F22741C4F20201884221DCD6
:10146000A021C4F20201884200F0B180B821C4F288
:101470000201884200F0AB8040F21041C4F2020148
:10148000A2E000BF5821C4F20201884200F09F8010
:101490007021C4F20201884200F099808821C4F2D0
:1014A000020191E040F22841C4F20201884200F0BA
:1014B0008E8040F24041C4F20201884200F08780F1
:1014C00040F25841C4F202017EE000BF4020EFE646
:1014D000032D17D8DFE805F00E0B0E02A3F1C07242
:1014E000B2FA82F2520904E0032D03D30AD1C3F306
:1014F00000623AB140206065012084F8350001B0F7
:10150000BDE8F08341612046FEF72EFFE16D3F22EA
:1015100001F01F0102FA01F18160206840457FF768
:101520007FAF45F22F41C5F60201884216DC40F23A
:10153000B741C4F20201884226DC40F27041C4F295
:101540000201884243D040F28841C4F2020188423D
:101550003DD040F2A041C4F2020135E045F26B41BA
:10156000C5F6020188421FDC45F23041C5F6020192
:1015700088422CD045F24441C5F60201884226D06B
:1015800045F258411EE000BF40F2B841C4F20201EA
:1015900088421CD045F20841C5F60201884216D0A7
:1015A00045F21C410EE000BF45F26C41C5F6020158
:1015B00088420CD045F29441C5F60201884206D01B
:1015C00045F28041C5F60201884240F0E18045F2D3
:1015D000574C45F6FC01C5F6020CC5F60201604504
:1015E0000EDC45F22F42C5F60202904218DC45F2AD
:1015F0000842C5F60202904228D045F21C4221E082
:1016000045F27F42C5F60202904213DC45F2584291
:10161000C5F60202904219D045F26C4212E000BFBA
:1016200045F23042C5F6020290420FD045F24442E4
:1016300008E000BF45F29442C5F60202904205D090
:1016400045F28042C5F60202904247D100F0FC020A
:101650004CF6CD43083ACCF6CC43A2FB0323A1F1D0
:10166000FC05A1F17C061B0905EB830503F01F02B5
:10167000A3682566802B4FF0010303FA02F2666629
:10168000A26605D100206060286072601EE000BF85
:101690006768FBB2013F072F2B60726016D85E1E91
:1016A000082E19D2604501F1440237DC45F22F477C
:1016B000C5F60207B84241DC45F20847C5F6020705
:1016C000B84259D045F21C474AE000BF002060678D
:1016D000C4E91B005CE000BFE06E54E000F0F802DB
:1016E0004AF6AB23103ACAF6AA23A2FB032740F21C
:1016F0000F43C4F2020308253A09984203F1AA06EF
:10170000134688BF05EB171340F60005B042C4F23C
:10171000020505F1800628BF1346A5E745F27F477D
:10172000C5F60207B84213DC45F25847C5F6020772
:10173000B84221D045F26C4712E000BF45F2304775
:10174000C5F60207B84217D045F2444708E000BF8B
:1017500045F28047C5F60207B8420DD045F29447DE
:10176000C5F60207B84207D040F60000C4F20200F6
:1017700000F1FC0100F5A07201EB83000121E0669D
:10178000B1402267616700210160D4E91C0141601A
:1017900000206065012184F8351001B0BDE8F083B8
:1017A00040B1B0B5054690F83400012804D10220BC
:1017B000B0BD00BF01207047012085F8340095F8C6
:1017C0003500012828D1022085F835000020686501
:1017D0002868046824F0010404602846FEF758FED7
:1017E00040F20F422868C4F2020240F26F41904278
:1017F000C4F2020118DC6F23C4F20203984225DC14
:101800003F23C4F2020398423CDC1023C4F20203DB
:1018100098425ED0282357E04FF4006068650020AE
:1018200085F834000120B0BD88421BDC40F23F4304
:10183000C4F2020398422DDC40F21043C4F20203CA
:10184000984246D040F228433EE000BF9F23C4F2B6
:101850000203984228DC7023C4F20203984238D075
:10186000882331E040F29F43C4F20203984223DC14
:1018700040F27043C4F2020398422AD040F28843F7
:1018800022E000BF4023C4F20203984221D0582333
:101890001AE000BF40F24043C4F20203984218D05D
:1018A00040F2584310E000BFA023C4F20203984264
:1018B0000FD0B82308E000BF40F2B843C4F20203DF
:1018C000984206D040F2A043C4F20203984240F08E
:1018D0002F8103680B2464F3440303602B6C1BB15A
:1018E0000823046823430360884219DC9F23C4F261
:1018F0000203984232DC5723C4F20203984259DCB7
:101900001023C4F20203984200F096802823C4F208
:101910000203984200F090804023C4F2020389E061
:1019200045F22F43C5F6020398422DDC40F2B7433F
:10193000C4F2020398424BDC40F27043C4F202034B
:10194000984279D040F28843C4F20203984273D09F
:1019500040F2A043C4F202036CE000BF40F2274310
:10196000C4F20203984243DCA023C4F2020398426B
:1019700062D0B823C4F2020398425DD040F2104313
:10198000C4F2020356E000BF45F26B43C5F6020302
:1019900098423FDC45F23043C5F6020398424BD0F3
:1019A00045F24443C5F60203984245D045F25843F8
:1019B0003EE000BF5823C4F2020398423CD070239B
:1019C000C4F20203984237D08823C4F2020331E004
:1019D00040F2B843C4F2020398422DD045F20843C6
:1019E000C5F60203984227D045F21C4320E000BF11
:1019F00040F22843C4F2020398421DD040F2404313
:101A0000C4F20203984217D040F25843C4F20203D2
:101A100010E000BF45F26C43C5F6020398420BD0BC
:101A200045F29443C5F60203984205D045F280433F
:101A3000C5F60203984274D12B6E1C68E40303D5EB
:101A40001C6844F480741C60EB6E1BB11D6845F487
:101A500080751D60904211DC6F21C4F20201884242
:101A60001EDC3F21C4F20201884235DC1021C4F2A1
:101A70000201884255D0282150E000BF88421BDC7B
:101A800040F23F41C4F2020188422DDC40F2104195
:101A9000C4F20201884244D040F228413EE000BF37
:101AA0009F21C4F20201884228DC7021C4F20201A5
:101AB000884236D0882131E040F29F41C4F20201D1
:101AC000884223DC40F27041C4F20201884228D0EF
:101AD00040F2884122E000BF4021C4F20201884266
:101AE0001FD058211AE000BF40F24041C4F2020169
:101AF000884216D040F2584110E000BFA021C4F245
:101B0000020188420DD0B82108E000BF40F2B84180
:101B1000C4F20201884204D040F2A041C4F20201A2
:101B20008842016841F0010101600020B0BD00BFA2
:101B30000368052464F3430303602B6C002B3FF41C
:101B4000D3AE0423CDE60000B0B5044600F0E4F8BF
:101B500040F200010546C2F20041621C097818BF3C
:101B60000C4400BF00F0D8F8401BA042FAD3B0BD2F
:101B70002DE9F04F82B00D68002D00F0C78000F114
:101B8000264242F2004402F1FF728305C5F60204C8
:101B90000A27A04243EA922208BF0927082A40F2F6
:101BA000040C38BF1746C5F6000C4FF0000E009726
:101BB000002700260AE000BF01360D6835FA06F25C
:101BC00007F102070EF1040E00F0A080012202FAD4
:101BD00006FB15EA0B08EFD0D1F804A003220AF0A7
:101BE000030502FA07F36C1E6FEA0309012C0FD8F4
:101BF0008368CC6803EA0903BC4023438360CAF3CB
:101C00000014436823EA0B03B4402343436003E01A
:101C1000032D01D1032520E0C3688C6803EA090382
:101C2000BC40022D43EA0403C36016D16FF00302E7
:101C30000EF01C0502EA56030F22034402FA05FBCC
:101C4000D3F820A00C692AEA0B0AAC4044EA0A0443
:101C50001C62D1F804A00AF00305036805FA07F432
:101C600003EA09031AF4403F43EA04030360A3D0E4
:101C700044F2F44240F2084AC5F60202C5F6000AF0
:101C8000136843F00203136013680F2203F002038A
:101C9000019326F00303019C0EF00C0453F80A9004
:101CA00002FA04F5009A29EA050502FA04F44FF055
:101CB000B0492C4343F80A40D9F800304C6843EA55
:101CC0000805E20258BF23EA0805C9F80050A5023A
:101CD000DCF8002042EA080358BF22EA0803A50303
:101CE000CCF80030DCF8802042EA080358BF22EA32
:101CF0000803E403CCF88030DCF87C2042EA0803D7
:101D000058BF22EA0803CCF87C3055E702B0BDE8A2
:101D1000F08F00000000000040F21830C2F20040D6
:101D2000006870470000000040F2000040F21831E7
:101D3000C2F20040C2F2004100780A681044086014
:101D4000704700000000000080B5032000F028F973
:101D500000F0EEFA44F2184143F6BA53C5F6020118
:101D6000C0F600030A68C2F303229A5C096801F016
:101D70000F0102F01F02595CD04040F20C02C2F287
:101D8000004201F01F0120FA01F1116040F2080148
:101D9000C2F2004108600F2000F00AF800281CBFC2
:101DA000012080BD00F0A8F8002080BD00000000E8
:101DB0000F2847D8B0B58AB004462C20002221460F
:101DC000002500F0BDF82C2000F0A6F840F2040039
:101DD000C2F20040046044F2E840C5F60200016827
:101DE00041F080010160006801A900F080000290CC
:101DF000029802A800F040FA079C002C18BF0124AA
:101E000000F066FA4DF68361A040C4F21B3141F642
:101E10000042A0FB010140F28020C2F200404FF0DE
:101E2000FF33C4F20002026003EB9141C0E90115E7
:101E300040F2E731C0E9031500F01AFE20B101209D
:101E40000AB0B0BD0120704740F28020C2F20040CD
:101E500000F0B2FE0AB0B0BD10B54EF6A05E4178FB
:101E6000CEF2000E90F800C04EF8081CDEF800100C
:101E700021F00101CEF8001041684EF8041C017BEE
:101E8000C37A827A447B1B0643EA0171837B41EA71
:101E9000C241C27B41EA8441447A41EA4341007A2B
:101EA00041EA024141EA042141EA400040EA0C00D3
:101EB000CEF8000010BD00004EF62450CEF2000017
:101EC000BFF35F8F016821F4803101600021016759
:101ED00070470000000000004EF6245140F0010061
:101EE000CEF200010867086840F480300860BFF354
:101EF0004F8FBFF36F8F704781B044F2F440C5F647
:101F00000200016841F002010160006800F0020077
:101F10000090009801B07047002848BF704700F05B
:101F20001F01012202FA01F14EF20012C0F34A1021
:101F3000CEF2000242F820107047000000000000BE
:101F400070B54EF60C5C4FF0FF36CEF2000C00F18F
:101F5000604505F56445DCF80030C3F3022E8EF0D1
:101F60000703042B28BF0423BEF1030406FA03F37E
:101F700021EA030100F00F0338BF0024043B0028CE
:101F8000634406FA04F048BF03F10C05A14022EABD
:101F9000000008430001287070BD00000000000030
:101FA0004EF60C514FF6FF03CEF200010A681A40BC
:101FB00060F30A2242F0806040F0FD7008607047D4
:101FC000B0B544F60C05C5F602052968490729682D
:101FD00006D401F00701081A18BF0120B0BD00BFE8
:101FE00021F0070108432860FFF796FE044600BF72
:101FF00055F8080C800407D4FFF78EFE001BB0F5DF
:102000007A7FF5D90120B0BD0020B0BD00000000EE
:102010002DE9F04381B0002800F02A8142F2000847
:102020000446C5F200288946D8F8000000F00F00E9
:1020300088420ED2D8F8000020F00F0040EA0900D4
:10204000C8F80000D8F8000000F00F00484540F044
:102050000F81206844F218474107C5F602070AD5E8
:1020600021693A6802F07002914204D93A6822F07C
:1020700070021143396001070AD561697A6802F07C
:102080007002914204D97A6822F07002114379609B
:10209000C1060AD5A1697A6802F4E062914204D9C6
:1020A0007A6822F4E0621143796081060AD5E16919
:1020B000BA6802F07002914204D9BA6822F0700244
:1020C0001143B96010F002010AD0E2683B6803F0E6
:1020D0000F039A4204D93B6823F00F031A433A6076
:1020E000C20746D03968D4E9010221F470610128A1
:1020F00041EA0201396009D003280DD0022811D12C
:1021000057F8181C890312D4B2E000BF57F8181C06
:10211000C9050CD4ACE000BF57F8181C890106D4DF
:10212000A6E000BF57F8181C490740F1A18057F8F6
:10213000081C21F00701084347F8080CFFF7ECFDE5
:10214000064641F2883500BF57F8080C616800F078
:102150003800B0EBC10F09D0FFF7DEFD801BA842AD
:10216000F2D9032001B0BDE8F08300BF206800F081
:10217000020151B1E1683A6802F00F02914204D2C3
:102180003A6822F00F0211433960D8F8001001F0CC
:102190000F0149450DD9D8F8001021F00F0141EA8F
:1021A0000901C8F80010D8F8001001F00F014945E6
:1021B0005ED141070AD521693A6802F07002914266
:1021C00004D23A6822F070021143396001070AD53F
:1021D00061697A6802F07002914204D27A6822F052
:1021E000700211437960C1060AD5A1697A6802F4C8
:1021F000E062914204D27A6822F4E062114379608D
:1022000080060AD5E069B96801F07001884204D2FD
:10221000B96821F070010843B86000F089F83968A6
:1022200043F6BA52C0F60002C1F30321515C3B6889
:1022300003F00F0301F01F01D25C20FA01F102F05C
:102240001F0040F20C02C2F2004221FA00F01060BE
:1022500040F2040040F20802C2F20040C2F2004222
:102260000068116001B0BDE8F043FFF7A1BD00BFF9
:10227000012001B0BDE8F0833F22026044F2184221
:10228000C5F6020252F8083C03F0070343601368E6
:1022900003F470638360136803F00F03C360136873
:1022A00003F070030361536803F0700343615368E4
:1022B00003F4E0638361926802F07002C26142F24B
:1022C0000000C5F20020006800F00F0008607047B1
:1022D00080B500F02DF844F2184C43F6BA53C5F619
:1022E000020CC0F60003DCF80020C2F303229A5C63
:1022F000DCF8001001F00F0102F01F02595CD04021
:1023000040F20C02C2F2004201F01F0120FA01F17A
:10231000116040F20802C2F200421060DCF80400D2
:10232000C0F30210185C00F01F0021FA00F080BD1D
:1023300044F20041C5F602010869C0F3C200032857
:1023400010D002282ED098BB0868800649F2000001
:10235000C0F2D03058BF70470968C1F3C101C8400E
:10236000704700BF8A6A886AC0F3051CC86ABCF15E
:10237000000F4B6B22D000F0010002F0030240423C
:10238000022A00EAD3006FF35F3000EE100AB8EEC5
:10239000400A15D0C2B90868800619D49FED281AE2
:1023A00023E000BF47F64000C0F27D10704700BF39
:1023B00040F60010C0F23D00704700BF002070479B
:1023C0009FED1E1A11E000BF9FED1B1A0DE000BF2C
:1023D000086849F20002C0F2D032C0F3C10022FA0C
:1023E00000F001EE100AB8EE411A086B9FED153AA5
:1023F0006FF35F2002EE100A086BC0F34620B8EEC0
:10240000422A013000EE032A00EE10CAB7EE003A6D
:10241000B8EE400A81EE000A32EE031A20EE010AFD
:1024200001EE100AB8EE411A80EE010ABCEEC00AB5
:1024300010EE100A704700BF0024744A20BCBE4B47
:102440000024744C0000003970B3F0B581B004462C
:10245000007844F20046C007C5F6020626D120786F
:1024600080076ED5306910F03801B06A46D018295F
:1024700008BF5FEA807041D0E0683168002800F052
:10248000318121F0190108433060FFF745FC054612
:10249000306840074ED4FFF73FFC401B0228F7D9B5
:1024A000032001B0F0BD00BF01207047306900F08B
:1024B0003801B06A102905D018290BD100F00300AB
:1024C000022807D130688003C9D560680028C6D1CA
:1024D000AEE000BF6068002800F03A81B0F5A02FA0
:1024E00000F04E81B0F5803F00F04E81306820F45E
:1024F00080303060306820F4802048E13068400748
:10250000E06802D5002800F09380316821F01901BD
:1025100008433060FFF700FC054600BF3068400705
:1025200008D4FFF7F9FB401B02284FF00300F5D950
:1025300001B0F0BD7068216920F0FE4040EA016002
:1025400070602078C0061AD5306900F03801B06A92
:10255000082907D0182940F0858000F003000128E1
:1025600040F080803068C00502D5E06980285FD1E6
:10257000F068216A20F07C5040EA0160F060207829
:1025800000073FD42078800656D42078400700F119
:102590008180656A9DB3306900F03800182840F0EA
:1025A0001981012DB16A306B42D001F00302A36A98
:1025B0009A423DD1C1F30511E26A914238D10146F8
:1025C000226B6FF35F21013A914231D1C0F3462271
:1025D000616B01398A422BD1C0F30642A16B0139EC
:1025E0008A4225D1C0F30660E16B013988421FD1D0
:1025F000706BA16CC0F3CC00814240F0A18100203F
:1026000001B0F0BD60690028706F59D040F0010042
:102610007067FFF781FB0546706F8007B2D4FFF744
:102620007BFB401B0228F7D9032001B0F0BD00BF9F
:10263000012001B0F0BD00BFA0690028306875D04E
:1026400040F480503060FFF767FB05463068800437
:102650009BD4FFF761FB401B0228F7D9032001B090
:10266000F0BD00BFE0690028306800F0A18040F0B4
:1026700080003060FFF750FB054600BF3068C005A2
:102680003FF576AFFFF748FB401B02284FF00300F1
:10269000F4D94DE7D6F8000440F48070C6F8000481
:1026A000FFF73AFB054600BFD6F80004C0052BD45F
:1026B000FFF732FB401B6428F6D9032001B0F0BDC0
:1026C00020F001007067FFF727FB0546706F800759
:1026D0007FF558AFFFF720FB401B02284FF00300A7
:1026E000F4D925E721F001003060FFF715FB05461E
:1026F000306840077FF525AFFFF70EFB401B02282F
:102700004FF00300F4D913E7A068002800F084809C
:10271000052800F09B80012800F09C80306F20F09D
:1027200001003067306F20F0040096E020F4805004
:102730003060FFF7F1FA0546306880047FF525AF79
:10274000FFF7EAFA401B02284FF00300F4D9EFE646
:10275000306820F480303060306820F480203060B1
:10276000FFF7DAFA054600BF306880037FF577AEE1
:10277000FFF7D2FA401B64284FF00300F4D9D7E6E4
:10278000306840F480203060306840F48030306041
:10279000FFF7C2FA054600BF306880033FF55FAE21
:1027A000FFF7BAFA401B6428F6D9032001B0F0BD48
:1027B00020F080003060FFF7AFFA05463068C005B2
:1027C0007FF5DDAEFFF7A8FA401B02284FF00300AB
:1027D000F4D9ADE6306820F080703060FFF79CFAE5
:1027E000022D05460CD100BF3068800148D5FFF7A7
:1027F00093FA401B02284FF00300F5D998E600BF7A
:10280000306880017FF5FBAEFFF786FA401B022897
:102810004FF00300F4D98BE6306F20F001003067F1
:10282000306F20F004003067FFF776FA054641F27A
:102830008837306F80077FF5ACAEFFF76DFA401B2D
:10284000B8424FF00300F4D972E600BF306F40F099
:1028500004003067306F40F001003067FFF75CFA2A
:10286000054641F2883700BF306F80073FF591AED3
:10287000FFF752FA401BB8424FF00300F4D957E675
:1028800004F12807B06A40F2F33188438ECF084341
:10289000591E40EA02104FF47E426FF35F21B0628E
:1028A00002EB47204FF4FE0280B2E36B0844A16BB9
:1028B00002EB01414FF0FE4201F4FE0102EB036224
:1028C000084402F0FE4108443063F06A4FF6F871A4
:1028D00020F00100F062706BA26C884340EAC200F5
:1028E0007063F06A216C20F00C000843F062F06A1B
:1028F000616C20F002000843F062F06A40F480301E
:10290000F062F06A40F40030F062F06A40F4802037
:10291000F062F06A40F00100F062306840F08070D0
:102920003060FFF7F9F90446306880013FF567AE83
:10293000FFF7F2F9001B02284FF00300F4D9F7E586
:10294000F06A20F00100F062FFF7E6F90546FFF7B4
:10295000E3F9A842FBD0706B4FF6F871A26C884384
:1029600040EAC2007063F06A40F00100F0620020AB
:1029700001B0F0BD00000000704700000000000042
:1029800070470000000000007047000000000000D9
:1029900090F83C20012A4FF0020266D0B0B580F8D2
:1029A0003D2040F2004C0268C4F2010C42F4806306
:1029B00063455368D2F808E002BF23F470034C6803
:1029C00023434DF6FF740D68C4F2000423F0700336
:1029D000A24243EA0503536014DC40F2FF73C4F2E1
:1029E00000039A4222DD40F60003C4F200039A423B
:1029F0002ED040F60043C4F200039A4228D041F69C
:102A0000000321E04FF6FF73C4F200039A4213DD86
:102A10000023C4F201039A421AD044F20003C4F224
:102A200001039A4214D0624512D016E0B2F1804FF1
:102A30000ED040F2004307E04EF20003C4F2000360
:102A40009A4205D04EF20043C4F200039A4204D1E8
:102A50002EF080038968194391600022012180F8DB
:102A60003D1080F83C20BDE8B040104670470000A3
:102A700060B310B5044690F83D0028B9002084F8F2
:102A80003C00204600F024F8022084F83D00206835
:102A9000211D00F03DFF012084F8480084F83E002D
:102AA00084F83F0084F8400084F8410084F8420034
:102AB00084F8430084F8440084F8450084F8460014
:102AC00084F8470084F83D00002010BD01207047C5
:102AD0002DE9F04F85B004460068B0F1804F03D077
:102AE00005B0BDE8F08F00BF44F2E04040F21008AE
:102AF000C5F602000026C4F20208816841F0010117
:102B00008160816801F0010100910099016841F044
:102B1000010101600068022100F0010000900098AE
:102B20000120009004900020CDE90111C5F60200BB
:102B300069460396FFF71CF840F2901508F118005B
:102B4000C2F200454FF480674FF480594FF4804A39
:102B500028601220C5E901064FF40030EE60C5E997
:102B6000080628462F61C5F814904FF4807BC5E90C
:102B700006ABFEF7E9FA08B1FDF712FE6562132015
:102B8000AC6340F20825C2F20045C5E9010605F133
:102B90000C00C5F80080C5E9086680E8C00E28462C
:102BA000FEF7D2FA08B1FDF7FBFDA562AC6305B0F4
:102BB000BDE8F08F0000000090F83D10012927D1FA
:102BC000022180F83D1001684DF6FF70C4F200004C
:102BD0008142C86840F00100C8601BDC40F2FF7011
:102BE000C4F2000081422DDD40F60000C4F2000076
:102BF00081423DD040F60040C4F20000814237D00F
:102C000041F60000C4F20000814231D03CE000BF38
:102C1000012070474FF6FF70C4F2000081421BDDB7
:102C20000020C4F20100814222D044F20000C4F22C
:102C3000010081421CD040F20040C4F201008142F8
:102C400016D021E0B1F1804F12D040F20040C4F222
:102C5000000081420CD017E04EF20000C4F20000E8
:102C6000814205D04EF20040C4F2000081420BD1F7
:102C700007228868C0F2010202400020062A18BF1D
:102C8000B2F5803F00D17047086840F0010008604D
:102C9000002070470000000090F83C20012A4FF00F
:102CA000020200F0AA8080B580F83D208822D0F88A
:102CB00000C0CFF6CE72DCF808301A40CCF80820FD
:102CC0000B686F2B0EDDB3F1101F37DAB3F5005F21
:102CD00046DA702B00F09480B3F5805F00F08480BA
:102CE000D8E000BF2F2B33DD4F2B3FDC302B6FD0D4
:102CF000402B40F0CF80D1F804E0C968DCF82030E8
:102D0000DCF8202022F00102CCF82020DCF818208A
:102D100022F0F00242EA011123F00A02CCF8181066
:102D200042EA0E01CCF820104FF68872DCF8081049
:102D3000CFF6CF721140473154E000BF2F21C0F2CF
:102D400010018B423ADCB3F1101F41D020213BE04F
:102D5000002B18BF102B3BD0202B39D09AE000BF9E
:102D600062D0B3F5801F33D094E000BF502B6FD0FA
:102D7000602B40F08F80D1F804E0C968DCF8203087
:102D8000DCF8202022F01002CCF82020DCF81820FB
:102D900022F4704242EA013123F0A002CCF818106C
:102DA00042EA0E11CCF820104FF68872DCF80810B9
:102DB000CFF6CF721140673114E000BF3021C0F26E
:102DC00010018B4204D04021C0F210018B4261D12E
:102DD0004FF68872DCF80810CFF6CF721140194315
:102DE00041F00701CCF808100022012180F83D10C5
:102DF000002180F83C10BDE880401046704700BFBD
:102E0000D1E901E3C968DCF8082043EA0E0322F4A3
:102E10007F4243EA01211143CCF80810DCF8081086
:102E200041F07701DEE700BFD1E901E3C968DCF8D2
:102E3000082043EA0E0322F47F4243EA01211143B2
:102E4000CCF80810DCF8081041F48041CAE700BF54
:102E5000D1F804E0C968DCF82030DCF8202022F04A
:102E60000102CCF82020DCF8182022F0F00242EA1F
:102E7000011123F00A02CCF8181042EA0E01CCF836
:102E800020104FF68872DCF80810CFF6CF72114090
:102E90005731A7E70122A8E77047000000000000B3
:102EA00070470000000000007047000000000000B4
:102EB00090F83C30012B01D1022070474FEAB2025A
:102EC000032A31D8F0B5DFE802F00335557500BFAD
:102ED0000368D1F80CE0D1E900C51C6A4DF6FF7615
:102EE0001A6AC4F2000622F001021A621A46B342BC
:102EF00052F8186F00F3868040F2FF77C4F20007A3
:102F0000BB4240F3958040F60007C4F20007BB4285
:102F100000F0A08040F60047C4F20007BB4200F07A
:102F2000998041F6000791E00121002280F83C20C1
:102F30000846704703684FF2FF0ED1E90076D1E9E9
:102F400002C11C6A36021A6A26EA0E0661F30F36BF
:102F500022F010021A621A4607F00A0752F8185FA8
:102F600025F4734546EA050124F0A006116046EAFF
:102F700007113EE00768D1E900C5D1E9023161F3EC
:102F800007153C6A3A6A22F480723A623A4652F86D
:102F90001C6F26F0F30645EA06010CF00A0624F43D
:102FA0002065116045EA06213962116821F00C01A3
:102FB000116060E003684FF2FF0ED1E90076D1E9BD
:102FC00002C11C6A36021A6A26EA0E0661F30F363F
:102FD00022F480521A621A4607F00A0752F81C5F60
:102FE00025F4734546EA050124F42046116046EABB
:102FF000073119624FEA0C23116821F44061116016
:1030000039E000BF4FF6FF77C4F20007BB4215DD81
:103010000027C4F20107BB421CD044F20007C4F2EF
:103020000107BB4216D040F20047C4F201070FE08F
:10303000B3F1804F0ED040F2004707E04EF2000798
:10304000C4F20007BB4205D04EF20047C4F20007AD
:10305000BB421BD126F00306354324F00A070CF0CF
:103060000A066EF307159D6137441F629F6927F0BA
:103070000C079F618B681168194311600021BDE83E
:10308000F040002280F83C200846704746F00105D9
:10309000E3E700000000000060B310B5044690F8BC
:1030A0003D0028B9002084F83C00204600F024F8B8
:1030B000022084F83D002068211D00F029FC012039
:1030C00084F8480084F83E0084F83F0084F840000B
:1030D00084F8410084F8420084F8430084F84400F6
:1030E00084F8450084F8460084F8470084F83D00E1
:1030F000002010BD01207047704700000000000054
:1031000070B5064681B1081F8D0745EA9000032877
:1031100010D8DFE800F00315232900BF06F13F00B7
:103120000478082911D124E096F83E4006F14400C5
:1031300021E000BF06F143000478082905D118E01A
:1031400006F140000478082913D0042902D106F1C1
:10315000450010E006F147000DE000BF06F1410018
:1031600004780829F1D104E006F142000478082926
:10317000EBD106F1460005780220022C18BF022D83
:1031800008D00120012C08BF012D03D1002A18BF4F
:10319000002B01D170BD00BF71B1081F8D0745EA3A
:1031A000900003280ED8DFE800F00311151900BFC6
:1031B000022086F83F0014E0022086F83E0086F8E0
:1031C00044001BE0022086F843000AE0022086F853
:1031D000400006E0022086F8410002E0022086F866
:1031E0004200082904D0042906D186F8450005E0EC
:1031F00086F8460002E000BF86F84700D6F800C017
:1032000001F01F0501204FEAB10100FA05F5DCF8D5
:103210002040AC43CCF82040DCF82040032945EAAC
:103220000405CCF8205000F27D80DFE801F0031F98
:103230003B5700BF706A43F68921C0F60001C163A5
:1032400043F61131706AC0F60001016443F649315A
:10325000706AC0F60001C1640CF13401706AFEF7B7
:103260009FFA002852D14FF4007053E0B06A43F641
:103270008921C0F60001C16343F61131B06AC0F67E
:103280000001016443F64931B06AC0F60001C1642F
:103290000CF13801B06AFEF783FAB8BB4FF48060D6
:1032A00038E000BFF06A43F68921C0F60001C1632F
:1032B00043F61131F06AC0F60001016443F649316A
:1032C000F06AC0F60001C1640CF13C01F06AFEF73F
:1032D00067FAD8B94FF400601CE000BF306B43F6CA
:1032E0008921C0F60001C16343F61131306BC0F68D
:1032F0000001016443F64931306BC0F60001C1643E
:103300000CF14001306BFEF74BFA08B1012070BDA3
:103310004FF48050D6F800C0DCF80C100843CCF80D
:103320000C0000204DF6FF71C4F200018C4515DC45
:1033300040F2FF71C4F200018C4525DD40F600012A
:10334000C4F200018C4531D040F60041C4F20001C6
:103350008C452BD041F6000124E000BF4FF6FF71F1
:10336000C4F200018C4515DD0021C4F201018C4539
:103370001CD044F20001C4F201018C4516D040F289
:103380000041C4F201010FE0BCF1804F0ED040F2C9
:10339000004107E04EF20001C4F200018C4505D067
:1033A0004EF20041C4F200018C450BD10722DCF83B
:1033B0000810C0F201021140062918BFB1F5803F84
:1033C0003FF4E8AEDCF8001041F00101CCF8001049
:1033D00070BD000000000000F0B581B00446006838
:1033E000C5680669B10717D515F0020114D06FF052
:1033F00002010161012121778069800704D0204604
:10340000FFF74EFD06E000BF204600F09DF8204685
:1034100000F09EF800202077700719D515F0040001
:1034200016D020686FF004010161022121778069C4
:1034300010F4407F04D02046FFF732FD06E000BFC5
:10344000204600F081F8204600F082F80020207726
:10345000300717D515F0080014D020686FF0080168
:10346000016104212177C069800703D02046FFF75E
:1034700017FD05E0204600F067F8204600F068F8E8
:1034800000202077F00619D515F0100016D020681E
:103490006FF01001016108212177C06910F4407FAD
:1034A00004D02046FFF7FCFC06E000BF204600F0F9
:1034B0004BF8204600F04CF800202077F00718BFAA
:1034C00015F0010006D020686FF00101016120466F
:1034D00000F042F805F0800716F4025F18BF002FD5
:1034E00002D1F00509D410E020686FF402510161A7
:1034F0002046FFF745FAF00507D537B120686FF48D
:10350000807101612046FFF737FA700609D515F082
:10351000400006D020686FF040010161204600F0B5
:1035200053F8B0060CD515F0200009D020686FF0D4
:1035300020010161204601B0BDE8F040FFF724BA48
:1035400001B0F0BD00000000704700000000000066
:10355000704700000000000041F600410068C4F21E
:103560000001884218BF7047FEF7DEBB0000000074
:10357000B0B5044690F83C0001284FF0020008BFA7
:10358000B0BD012584F83C5084F83D00204600F091
:103590000BFB00284FF0010006D084F83D500021BD
:1035A00084F83C10B0BD00BF2068C16821F0400124
:1035B000C160C16821F48041C160002084F83D50A1
:1035C000002184F83C10B0BD7047000000000000EE
:1035D000FEE700000000000080B582B044F2D84051
:1035E0000022C5F60200016841F001010160006897
:1035F000002100F00100019001980B20FEF7A0FCD3
:103600000B20FEF789FC0C2000210022FEF798FC1D
:103610000C2002B0BDE88040FEF77EBC0000000038
:1036200083B044F2E040C5F60200016841F00401B5
:103630000160016801F0040102910299016841F002
:1036400080010160016801F0800101910199016828
:1036500041F001010160006800F001000090009855
:1036600003B070470000000010B590B040F2CC20CD
:103670000021C2F200400F91CDE90D11CDE90A11F0
:10368000CDE90811CDE90611CDE90411CDE902110A
:10369000CDE900114FF080428160C0E900214FF078
:1036A000FF328161C0E90321FFF7E2F908B1FDF7BC
:1036B00077F84FF480500C9040F2CC200CA9C2F265
:1036C0000040FFF7E9FA08B1FDF76AF840F2CC20B4
:1036D000C2F20040FFF7E0FC08B1FDF761F80420FA
:1036E00007905020089040F2CC2007A9C2F2004079
:1036F000002409940B94FFF73BFF08B1FDF750F845
:1037000040F2CC2004A9C2F2004004940694FFF7D2
:103710003FF908B1FDF744F8002000900121039023
:10372000CDE9011040F2CC206946C2F200400022EF
:10373000FFF7BEFB08B1FDF733F80220019040F21D
:10374000CC206946C2F200400422FFF7B1FB08B169
:10375000FDF726F810B010BDFEE7000000000000E5
:10376000FEE70000000000007047000000000000BD
:1037700070470000000000007047000000000000DB
:10378000B0B59CB044F61804022000251195CDE98F
:103790000F55CDE90D55CDE90B550895C5F6020439
:1037A000CDE90655CDE90455CDE902550195FEF761
:1037B00007FC0095206840F440402060206800F439
:1037C0004040009000982068800409D4206880045C
:1037D0005CBF20685FEA804002D420688004F2D594
:1037E0000120099010224FF48031CDE915200C20E2
:1037F000199009A80A9102211491CDE91211CDE97D
:1038000017110024CDE91A44FEF71EFE20B1EFF394
:10381000108072B6FEE700BF3F20019003204FF4F6
:103820008061CDE9020440200494CDE90500CDE992
:10383000071001A80221FEF7EBFB28B1EFF310807F
:1038400072B600BFFEE700BF1CB0B0BD00000000B4
:103850004EF6885042F2000CCEF20000C5F2002C69
:10386000026842F470020260DCF8000000F00F0011
:10387000062806D8DCF80000072262F30300CCF823
:10388000000044F200404EF67F51C5F60200CEF62D
:10389000F621026842F00102026000220261036820
:1038A00019400160DCF80010090706D5DCF80010AB
:1038B000072363F30301CCF8001040F2002182617A
:1038C000C261C0F20221026281620021C0F2FF11D6
:1038D000C16240F28021C0F2011101634263816341
:1038E000C26301644264016821F4802101600266C0
:1038F00044F20000C5F2002043F2D201016070479B
:1039000040F28020C2F20040FFF766BD00000000D8
:1039100010B540F6FF32D0F800E0C4F20002904249
:1039200010DCB0F1804F1ED040F20043C4F200031F
:10393000984218D040F60003C4F20003984212D017
:1039400016E000BF40F60043C4F2000398420AD0DC
:1039500040F20043C4F20103984204D00023C4F2B1
:103960000103984204D12EF070024B6843EA020E24
:103970004EF2FF3343F6FF7CC4F20003C4F2010CA5
:10398000984213DD60452BDC4EF20043C4F2000385
:10399000984242D00023C4F2010398423DD040F245
:1039A0000043C4F20103984237D03BE040F2FF737A
:1039B000C4F20003984227DD40F60003C4F200037E
:1039C00098422AD040F60043C4F20003984224D023
:1039D0004EF20003C4F2000398421ED022E000BF62
:1039E00044F20003C4F20103984216D044F60003E7
:1039F000C4F20103984210D044F20043C4F2010320
:103A000098420AD00EE000BFB0F1804F05D040F2DE
:103A10000043C4F20003984204D12EF44072CB68F4
:103A200043EA020E4B6960450A688C68C462826290
:103A300012DD44F20002C4F20102904217D044F6B3
:103A40000002C4F20102904211D044F20042C4F2DA
:103A5000010290420BD00CE00022C4F2010290421D
:103A600005D040F20042C4F20102904201D109693E
:103A70000163016841F004010160012141612EF000
:103A800080011943016010BD10B5846B616A8142E9
:103A900014D0A16A81421DD0E16A814226D0216BF7
:103AA00081422ED1C06900284FF00800207728D12C
:103AB000012084F8410084F8470022E0C069002812
:103AC0004FF0010020771CD184F83E0084F84400B8
:103AD00017E000BFC06900284FF00200207710D126
:103AE000012084F83F0084F845000AE0C0690028FE
:103AF0004FF00400207704D1012084F8400084F8BE
:103B000046002046FFF7CCF90020207710BD0000CA
:103B100010B5846B616A81420AD0A16A814209D0E2
:103B2000E16A814208D0216B814207D1082004E07C
:103B3000012002E0022000E0042020772046FFF769
:103B4000B3F90020207710BD10B5846B616A814203
:103B50000CD0A16A81420FD0E16A814212D0216B60
:103B6000814215D0012084F83D0016E00120207725
:103B700084F83E0011E000BF02202077012084F885
:103B80003F000AE004202077012084F8400004E090
:103B900008202077012084F841002046FFF77CF9B7
:103BA0000020207710BD000010B5D0F800C04FF6FF
:103BB000887E4FF6F874CFF6CE7EDCF80800CFF69C
:103BC000FE74D1E9002300EA0E001C402043B3F14B
:103BD000101F40EA0200CCF808004FF000000DDA98
:103BE0003F2B21DD5F2B31DD602B67D0702B00F088
:103BF0007F80B3F5801F5FD08CE000BF4F21C0F203
:103C000010018B4218DD6F21C0F210018B423BDDA9
:103C10007021C0F210018B4218BFB3F5001F4BD0CA
:103C20001021C0F2200145E01F2B35DC002B43D0D2
:103C3000102B41D06EE000BF2F21C0F210018B424B
:103C400030DCB3F1101F37D0202131E0402B5FD0A2
:103C5000502B5FD188680969DCF82020DCF820301F
:103C600022F00A0223F00103CCF82030DCF81830EF
:103C7000104323F0F00343EA0111CCF81810CCF8FC
:103C80002000002010BD00BF5021C0F210018B4267
:103C900008BF10BD60210BE0202B0DD0302B0BD0C6
:103CA00038E000BF3021C0F210018B4204D0402127
:103CB000C0F210018B422DD110BD00BF8868096988
:103CC000DCF82020DCF8203022F0A00223F01003E2
:103CD000CCF82030DCF8183042EA001023F47043AE
:103CE00043EA0131CCF81810CCF82000002010BDB8
:103CF000D1E902020969DCF80830104323F47F425D
:103D000040EA01201043CCF80800002010BD00BF9D
:103D1000052A01D1012010BDDCF82000DCF82020AC
:103D200022F00102CCF82020DCF81820096922F0EA
:103D3000F00242EA0111CCF81810CCF82000002063
:103D400010BD000000000000FEE7000000000000C1
:103D500084B001200090FEF7AFF80020019048F2F7
:103D60001F70029040F2011003906846FEF774F84D
:103D70000420FEF7B1F8FDF7E7FFFFF701FDFFF7BD
:103D80004FFCFFF729FCFFF76FFCFCF7B5FD00BF08
:103D9000FCF726FD6420FDF7D7FEF9E702E008C82E
:103DA000121F08C1002AFAD170477047002001E0B5
:103DB00001C1121F002AFBD1704700000000000063
:103DC000000001020304060708090000FC3D00088A
:103DD00000000024100000009C3D0008FC3D00088D
:103DE0000000002000040000AC3D00080C3E00086C
:103DF000100000240C030000AC3D0008010000008E
:0C3E0000100000000090D0030090D003E0
:04000005080002CD20
:00000001FF
